:100000000C942A000C9447000C9447000C94470071
:100010000C9447000C9447000C9447000C94470044
:100020000C9447000C9447000C9447000C94470034
:100030000C9447000C9447000C9447000C94470024
:100040000C9447000C9447000C9447000C94470014
:100050000C94470011241FBECFE5D8E0DEBFCDBF12
:1000600010E0A0E6B0E0E2EFF0E002C005900D92F3
:10007000A036B107D9F710E0A0E6B0E001C01D92AC
:10008000A036B107E1F70E9449000C9477000C9468
:1000900000008FEF84BB21E092E083E025BB4FEFAF
:1000A00055EA6EE0415050406040E1F700C000006A
:1000B00015BA4FEF55EA6EE0415050406040E1F70D
:1000C00000C0000095BB4FEF55EA6EE04150504034
:1000D0006040E1F700C0000085BB4FEF55EA6EE0DD
:1000E000415050406040E1F700C00000D7CFF89485
:0200F000FFCF40
:00000001FF
